{
  "_format": "hh-sol-artifact-1",
  "contractName": "RefundByGPSnTime",
  "sourceName": "contracts/RefundByGPSnTime.sol",
  "abi": [
    {
      "anonymous": false,
      "inputs": [
        {
          "indexed": true,
          "internalType": "address",
          "name": "deviceAccount",
          "type": "address"
        },
        {
          "indexed": false,
          "internalType": "enum RefundByGPSnTime.DeviceState",
          "name": "newState",
          "type": "uint8"
        }
      ],
      "name": "DeviceComplianceUpdated",
      "type": "event"
    },
    {
      "inputs": [
        {
          "internalType": "address",
          "name": "_deviceAccount",
          "type": "address"
        },
        {
          "internalType": "int256",
          "name": "_latitude",
          "type": "int256"
        },
        {
          "internalType": "int256",
          "name": "_longitude",
          "type": "int256"
        },
        {
          "internalType": "uint256",
          "name": "_distance",
          "type": "uint256"
        }
      ],
      "name": "addDevice",
      "outputs": [],
      "stateMutability": "nonpayable",
      "type": "function"
    },
    {
      "inputs": [],
      "name": "creatorAccount",
      "outputs": [
        {
          "internalType": "address",
          "name": "",
          "type": "address"
        }
      ],
      "stateMutability": "view",
      "type": "function"
    },
    {
      "inputs": [],
      "name": "deviceAccount",
      "outputs": [
        {
          "internalType": "address",
          "name": "",
          "type": "address"
        }
      ],
      "stateMutability": "view",
      "type": "function"
    },
    {
      "inputs": [
        {
          "internalType": "address",
          "name": "",
          "type": "address"
        }
      ],
      "name": "deviceReadings",
      "outputs": [
        {
          "internalType": "int256",
          "name": "latitude",
          "type": "int256"
        },
        {
          "internalType": "int256",
          "name": "longitude",
          "type": "int256"
        },
        {
          "internalType": "uint256",
          "name": "distance",
          "type": "uint256"
        },
        {
          "internalType": "uint256",
          "name": "timestamp",
          "type": "uint256"
        },
        {
          "internalType": "enum RefundByGPSnTime.DeviceState",
          "name": "state",
          "type": "uint8"
        }
      ],
      "stateMutability": "view",
      "type": "function"
    },
    {
      "inputs": [],
      "name": "driverAccount",
      "outputs": [
        {
          "internalType": "address",
          "name": "",
          "type": "address"
        }
      ],
      "stateMutability": "view",
      "type": "function"
    },
    {
      "inputs": [
        {
          "internalType": "uint256",
          "name": "_reward",
          "type": "uint256"
        }
      ],
      "name": "transferEtherToCreator",
      "outputs": [],
      "stateMutability": "nonpayable",
      "type": "function"
    },
    {
      "inputs": [
        {
          "internalType": "int256",
          "name": "_latitude",
          "type": "int256"
        },
        {
          "internalType": "int256",
          "name": "_longitude",
          "type": "int256"
        },
        {
          "internalType": "uint256",
          "name": "_distance",
          "type": "uint256"
        },
        {
          "internalType": "uint256",
          "name": "_timestamp",
          "type": "uint256"
        }
      ],
      "name": "updateDeviceLocation",
      "outputs": [],
      "stateMutability": "nonpayable",
      "type": "function"
    }
  ],
  "bytecode": "0x6080604052336000806101000a81548173ffffffffffffffffffffffffffffffffffffffff021916908373ffffffffffffffffffffffffffffffffffffffff160217905550652d79883d20006003556512309ce5400060045534801561006457600080fd5b50610d37806100746000396000f3fe608060405234801561001057600080fd5b506004361061007d5760003560e01c8063800d06851161005b578063800d0685146100f0578063b135dd0e1461010e578063bc250ab31461012a578063d47bde3b146101465761007d565b80633beea8bb14610082578063465e8b8f146100a057806349532783146100d4575b600080fd5b61008a610164565b6040516100979190610852565b60405180910390f35b6100ba60048036038101906100b5919061089e565b61018a565b6040516100cb959493929190610974565b60405180910390f35b6100ee60048036038101906100e99190610a1f565b6101cd565b005b6100f8610453565b6040516101059190610852565b60405180910390f35b61012860048036038101906101239190610a86565b610477565b005b610144600480360381019061013f9190610ab3565b6105b2565b005b61014e61079f565b60405161015b9190610852565b60405180910390f35b600160009054906101000a900473ffffffffffffffffffffffffffffffffffffffff1681565b60056020528060005260406000206000915090508060000154908060010154908060020154908060030154908060040160009054906101000a900460ff16905085565b600260009054906101000a900473ffffffffffffffffffffffffffffffffffffffff1673ffffffffffffffffffffffffffffffffffffffff163373ffffffffffffffffffffffffffffffffffffffff161461025d576040517f08c379a000000000000000000000000000000000000000000000000000000000815260040161025490610b77565b60405180910390fd5b6040518060a0016040528085815260200184815260200183815260200182815260200160026003811115610294576102936108fd565b5b815250600560003373ffffffffffffffffffffffffffffffffffffffff1673ffffffffffffffffffffffffffffffffffffffff1681526020019081526020016000206000820151816000015560208201518160010155604082015181600201556060820151816003015560808201518160040160006101000a81548160ff02191690836003811115610329576103286108fd565b5b0217905550905050600060056000600260009054906101000a900473ffffffffffffffffffffffffffffffffffffffff1673ffffffffffffffffffffffffffffffffffffffff1673ffffffffffffffffffffffffffffffffffffffff1681526020019081526020016000209050600260038111156103aa576103a96108fd565b5b8160040160009054906101000a900460ff1660038111156103ce576103cd6108fd565b5b03610403576103fe600160009054906101000a900473ffffffffffffffffffffffffffffffffffffffff166107c5565b61044c565b600380811115610416576104156108fd565b5b8160040160009054906101000a900460ff16600381111561043a576104396108fd565b5b0361044b5761044a600454610477565b5b5b5050505050565b60008054906101000a900473ffffffffffffffffffffffffffffffffffffffff1681565b60008054906101000a900473ffffffffffffffffffffffffffffffffffffffff1673ffffffffffffffffffffffffffffffffffffffff163373ffffffffffffffffffffffffffffffffffffffff1614610505576040517f08c379a00000000000000000000000000000000000000000000000000000000081526004016104fc90610be3565b60405180910390fd5b80471015610548576040517f08c379a000000000000000000000000000000000000000000000000000000000815260040161053f90610c75565b60405180910390fd5b60008054906101000a900473ffffffffffffffffffffffffffffffffffffffff1673ffffffffffffffffffffffffffffffffffffffff166108fc829081150290604051600060405180830381858888f193505050501580156105ae573d6000803e3d6000fd5b5050565b60008054906101000a900473ffffffffffffffffffffffffffffffffffffffff1673ffffffffffffffffffffffffffffffffffffffff163373ffffffffffffffffffffffffffffffffffffffff1614610640576040517f08c379a000000000000000000000000000000000000000000000000000000000815260040161063790610be3565b60405180910390fd5b6000600560008673ffffffffffffffffffffffffffffffffffffffff1673ffffffffffffffffffffffffffffffffffffffff16815260200190815260200160002060030154146106c5576040517f08c379a00000000000000000000000000000000000000000000000000000000081526004016106bc90610ce1565b60405180910390fd5b6040518060a00160405280848152602001838152602001828152602001428152602001600260038111156106fc576106fb6108fd565b5b815250600560008673ffffffffffffffffffffffffffffffffffffffff1673ffffffffffffffffffffffffffffffffffffffff1681526020019081526020016000206000820151816000015560208201518160010155604082015181600201556060820151816003015560808201518160040160006101000a81548160ff02191690836003811115610791576107906108fd565b5b021790555090505050505050565b600260009054906101000a900473ffffffffffffffffffffffffffffffffffffffff1681565b8073ffffffffffffffffffffffffffffffffffffffff166108fc6003549081150290604051600060405180830381858888f1935050505015801561080d573d6000803e3d6000fd5b5050565b600073ffffffffffffffffffffffffffffffffffffffff82169050919050565b600061083c82610811565b9050919050565b61084c81610831565b82525050565b60006020820190506108676000830184610843565b92915050565b600080fd5b61087b81610831565b811461088657600080fd5b50565b60008135905061089881610872565b92915050565b6000602082840312156108b4576108b361086d565b5b60006108c284828501610889565b91505092915050565b6000819050919050565b6108de816108cb565b82525050565b6000819050919050565b6108f7816108e4565b82525050565b7f4e487b7100000000000000000000000000000000000000000000000000000000600052602160045260246000fd5b6004811061093d5761093c6108fd565b5b50565b600081905061094e8261092c565b919050565b600061095e82610940565b9050919050565b61096e81610953565b82525050565b600060a08201905061098960008301886108d5565b61099660208301876108d5565b6109a360408301866108ee565b6109b060608301856108ee565b6109bd6080830184610965565b9695505050505050565b6109d0816108cb565b81146109db57600080fd5b50565b6000813590506109ed816109c7565b92915050565b6109fc816108e4565b8114610a0757600080fd5b50565b600081359050610a19816109f3565b92915050565b60008060008060808587031215610a3957610a3861086d565b5b6000610a47878288016109de565b9450506020610a58878288016109de565b9350506040610a6987828801610a0a565b9250506060610a7a87828801610a0a565b91505092959194509250565b600060208284031215610a9c57610a9b61086d565b5b6000610aaa84828501610a0a565b91505092915050565b60008060008060808587031215610acd57610acc61086d565b5b6000610adb87828801610889565b9450506020610aec878288016109de565b9350506040610afd878288016109de565b9250506060610b0e87828801610a0a565b91505092959194509250565b600082825260208201905092915050565b7f4e6f7420417574686f72697a6564000000000000000000000000000000000000600082015250565b6000610b61600e83610b1a565b9150610b6c82610b2b565b602082019050919050565b60006020820190508181036000830152610b9081610b54565b9050919050565b7f4e6f7420617574686f72697a6564000000000000000000000000000000000000600082015250565b6000610bcd600e83610b1a565b9150610bd882610b97565b602082019050919050565b60006020820190508181036000830152610bfc81610bc0565b9050919050565b7f496e73756666696369656e742062616c616e636520696e2074686520636f6e7460008201527f7261637400000000000000000000000000000000000000000000000000000000602082015250565b6000610c5f602483610b1a565b9150610c6a82610c03565b604082019050919050565b60006020820190508181036000830152610c8e81610c52565b9050919050565b7f44657669636520616c7265616479206164646564000000000000000000000000600082015250565b6000610ccb601483610b1a565b9150610cd682610c95565b602082019050919050565b60006020820190508181036000830152610cfa81610cbe565b905091905056fea2646970667358221220ef7fb07cf9dcaf06231d4d4323e7033c6a7af49ef89fdce0295931f1cc13035d64736f6c63430008130033",
  "linkReferences": {},
  "deployedLinkReferences": {}
}